:020000040000fa
:080000000002040000000000f2
:020000040000fa
:100400000f2b2200007f2200000188000000000066
:100410000c00070040c52800010020001100070063
:10042000000020000000e000020032000000020096
:1004300000000000e2880200000000000040da0036
:100440000000fe004440a900402a22000000e00015
:100450000300320000002000a00188004440a800f2
:100460000000060091018800800078000000eb0089
:1004700015003700e280400032a0b4009101ba00bc
:10048000e280400032a0b4009102ba00e280400055
:1004900032a0b4000002eb00472bde00f507b200eb
:1004a000602ce10004003a000059eb008301e900f0
:1004b000fdff3e00040037006128e100010032002a
:1004c0000082eb00040007001101ba000200e00006
:1004d000e8ff3a00000006003159ba008301e90044
:1004e0000c0032002159ba008301e90008003200f3
:1004f0000400e00003003a00e280400032a0b400b3
:10050000f5ff370011d9ba008301e900faff3a007c
:100510008100e800e180400032a0b4000000060045
:10052000889fbe008a9fbe00010578000100e000a0
:100530000400350008003c000000e000200032000c
:100540000500370060001000e080180002003b004a
:1005500001f02c001a0037000004be006011b80042
:100560006b0920000982cf00020039000882cf0009
:100570000441b000694252000e00320008003b0006
:1005800082817100610164008904d1000884d30074
:100590008b05e8000442e800f9ff3a000500370047
:1005a0000804440089844c008b05e9000442e900fa
:1005b000fbff3a00290107000af0a70001f0a000a4
:1005c0004f05be004f04be000000060003f0a2006d
:1005d000889fbe008a9fbe008c1f780045010700df
:1005e0004c0133006450e1004f0032006420e10010
:1005f0005200320003826c0007003b000905d00066
:100600000306d000820f54000c065d000200390082
:1006100002003200890178000306780085825500c7
:1006200004003d000003fd008103fd008502ea0097
:100630008b854200840f720002003b0060001000b6
:10064000e08018006011b8000005eb007a28e10096
:100650000a00390006007800c75ddd00f707b20028
:10066000878075002d003700828171000a017800b3
:10067000610560008180d1000080d3008502e9001f
:10068000f9ff3b00060440008784480002003b005d
:1006900060041400e0841c000988a30007003200f5
:1006a0008a81710082817100610164008904d10036
:1006b0000884d3008b05e800170037000978a300f1
:1006c00013003a000b00e000130034008b05e90032
:1006d0000804440089844c000a4474000978a3008b
:1006e0000d003a000b00e000070034008b05e90024
:1006f0000804440089844c0001003a000b002000eb
:100700000978a300f7ff32000001eb000200370078
:10071000828171000a017800d00007000cf0a70068
:1007200001f0a000040137006420e10002003a005b
:10073000838f6c00040133000801be000200be007c
:10074000fd003700889fbe008a9fbe008c1f780086
:10075000e8000700ef00330003866c006450e100fe
:100760002e0032006420e100330032006150e100cd
:100770002f0032006120e1003100320085855500f4
:10078000eb07b00009002000080420000500370036
:100790000804440089844c000a0031000603430029
:1007a00087834b000001530081815b00f8ff330019
:1007b0000203be000800a0000804440089844c0025
:1007c000f6ff3900c639dd008301730001003200f5
:1007d000130020008904d1000884d3000998a300e5
:1007e000050032000800a7000300a0008904d10022
:1007f0000884d3008b05e8008904d1000884d30065
:100800000001eb000281d2009400070001f0a1007a
:100810000cf0a70001f0a000c70037006420e10041
:10082000c90032000801be000200be00f7ff370019
:100830006120e100c40032006000b800f3ff37001f
:100840000000200001f82700f0ff3700889fbe005d
:100850008a9fbe008c1f7800a6000700ad00330001
:1008600003866c006450e100240032006420e10043
:10087000270032006150e100220032006120e100d7
:10088000210032008b854200eb07b1000134b80033
:10089000003ab8000804420089844a00013ab800ce
:1008a0000030b8008880400009014a00040033008d
:1008b0000000400081804800020149008b05e900ea
:1008c000c909dd008301700001003200130020001f
:1008d000c814de004814dd004709de001200b20033
:1008e000c808de00088470005c00070001f0a10069
:1008f0000cf0a70001f0a0008f0037006120e1009c
:10090000910032000801be000200be00f7ff370070
:100910006150e100fcff3a008b0037000001be008f
:100920008c0007000470a70003f0a10003f8a300e7
:1009300013003a006509b1001000320009003500cb
:100940006928e100020035000100280000000500d0
:1009500000004000818048008502e900fcff3a0069
:1009600000000600f88f4200050035008100d1002c
:100970000080d3008502e800fcff3a00000006007a
:100980008000eb0000000500140020008600370006
:10099000f4ff2f00840037000001be006d00070047
:1009a0000470a70003f0a1006509b1001600320031
:1009b0000d0035006828e10006003500f0ff2f002b
:1009c000f1ff27000300e00013003b0001002800b6
:1009d0000000050000004000818048008502e90019
:1009e000fcff3a0008003700f88f420002003c008c
:1009f0008000eb00000005008100d1000080d300e2
:100a00008502e800fcff3a000300e00002003b0022
:100a100060001000e0801800000006006022b800ae
:100a2000060220000000d0008180d2000482d200a3
:100a30008582d2000000a0000202520083825a0088
:100a4000030031000202420083824a000000a1003c
:100a50000603e900f3ff3a000000060081002000d1
:100a6000618055000b003d000b00200061fe2f004f
:100a70000100e1001d003400828171006101640009
:100a80008904d1000884d3000000e800faff3a008e
:100a9000710020006100640003007000020060002b
:100aa0000900320061044400e0844c000988a5007c
:100ab000050032008b05e8006808e10002003a00fa
:100ac0008904d1000884d300f20f20000258e1000d
:100ad00005003d00c75ddd00f907b20089807500a3
:100ae00008007800000006000bf827008b00780053
:100af000000005000004be00160007000003be0051
:100b00000405be000200be0012000700844f7500fd
:100b1000000006000200be006450e100050036003f
:100b20006420e100020036000968a30001003a00d9
:100b30000800be000160a0004f0678004f05be000f
:100b40004f04be0000000600f0ff2f00f1ff270059
:100b5000f9ff3700c70ade00f107b200f50fb20057
:100b600008003200e1cf4200020032000170a00014
:100b700024000500810f7000010032000408050008
:100b800044000500810f700002003a0014000500c7
:100b90008502e9000000400081c04800fcff3b00e6
:100ba0000170a00024000500889fbe008a9fbe003f
:100bb000841f7800cfff07004f007800110033003a
:100bc000f0ff2f00838f6c0006003b0004056500da
:100bd0000a00a7000800370009f0a6001000200056
:100be00008003700820f5400838f5c000300390037
:100bf0001000200001003e000000200009f0a700c6
:100c00000000ea004f05be004f04be000000e000f7
:040c100000000600da
:020000040000fa
:020000040001f9
:0457f8008f790000a5
:020000040000fa
:020000040001f9
:0457fc00f83f000072
:020000040000fa
:10000800c88c0000c88c0000c88c0000c88c000098
:10001800c88c0000c88c0000c88c0000c88c000088
:10002800c88c0000c88c0000022f0000148a000051
:10003800c88c0000c88c0000102f0000742e00002f
:10004800f2300000c88c0000402f0000266a000033
:1000580096690000dc8b0000c88c0000c88c00008a
:10006800c88c0000c88c0000c88c0000ba82000050
:10007800b82f0000c88c0000c88c0000c88c000095
:10008800c88c000034300000788b0000c88c000059
:10009800c88c0000f02f00006e6a0000de690000c6
:1000a800c88c00006e300000c88c0000c88c0000ae
:1000b800c88c0000c88c0000c88c0000c88c0000e8
:1000c800c88c0000aa8b0000c88c0000c88c0000f7
:1000d800c88c0000c88c0000c88c0000c88c0000c8
:1000e800c88c0000c88c0000c88c0000c88c0000b8
:1000f800c88c0000c88c0000c88c0000c88c0000a8
:10010800c88c0000c88c0000c88c0000c88c000097
:10011800c88c0000c88c0000c88c0000c88c000087
:10012800c88c0000c88c0000c88c0000c88c000077
:10013800c88c0000c88c0000c88c0000c88c000067
:10014800c88c0000c88c0000c88c0000c88c000057
:10015800c88c0000c88c0000c88c0000c88c000047
:10016800c88c0000c88c0000c88c0000c88c000037
:10017800c88c0000c88c0000c88c0000c88c000027
:10018800c88c0000c88c0000c88c0000c88c000017
:10019800c88c0000c88c0000c88c0000c88c000007
:1001a800c88c0000c88c0000c88c0000c88c0000f7
:1001b800c88c0000c88c0000c88c0000c88c0000e7
:1001c800c88c0000c88c0000c88c0000c88c0000d7
:1001d800c88c0000c88c0000c88c0000c88c0000c7
:1001e800c88c0000c88c0000c88c0000c88c0000b7
:0801f800c88c0000c88c000057
:020000040000fa
:10020800c88c0000c88c0000c88c0000c88c000096
:10021800c88c0000c88c0000c88c0000c88c000086
:10022800c88c0000c88c0000022f0000148a00004f
:10023800c88c0000c88c0000102f0000742e00002d
:10024800f2300000c88c0000402f0000266a000031
:1002580096690000dc8b0000c88c0000c88c000088
:10026800c88c0000c88c0000c88c0000ba8200004e
:10027800b82f0000c88c0000c88c0000c88c000093
:10028800c88c000034300000788b0000c88c000057
:10029800c88c0000f02f00006e6a0000de690000c4
:1002a800c88c00006e300000c88c0000c88c0000ac
:1002b800c88c0000c88c0000c88c0000c88c0000e6
:1002c800c88c0000aa8b0000c88c0000c88c0000f5
:1002d800c88c0000c88c0000c88c0000c88c0000c6
:1002e800c88c0000c88c0000c88c0000c88c0000b6
:1002f800c88c0000c88c0000c88c0000c88c0000a6
:10030800c88c0000c88c0000c88c0000c88c000095
:10031800c88c0000c88c0000c88c0000c88c000085
:10032800c88c0000c88c0000c88c0000c88c000075
:10033800c88c0000c88c0000c88c0000c88c000065
:10034800c88c0000c88c0000c88c0000c88c000055
:10035800c88c0000c88c0000c88c0000c88c000045
:10036800c88c0000c88c0000c88c0000c88c000035
:10037800c88c0000c88c0000c88c0000c88c000025
:10038800c88c0000c88c0000c88c0000c88c000015
:10039800c88c0000c88c0000c88c0000c88c000005
:1003a800c88c0000c88c0000c88c0000c88c0000f5
:1003b800c88c0000c88c0000c88c0000c88c0000e5
:1003c800c88c0000c88c0000c88c0000c88c0000d5
:1003d800c88c0000c88c0000c88c0000c88c0000c5
:1003e800c88c0000c88c0000c88c0000c88c0000b5
:0803f800c88c0000c88c000055
:020000040000fa
:100c1400464f00004e5400005832000000460000c9
:100c24004f4e00005458000032530000696e00001b
:100c34006f6e00006f6d000065080000100000007a
:100c440000000000000000000000000000000000a0
:100c54000000000000000000000000000000000090
:100c640010100000383800007c7c0000fefe0000fc
:100c74007c7c0000383800001010000000000000e8
:100c840055aa000055aa000055aa000055aa000064
:100c940055aa000055aa000055aa00000000000053
:100ca4000088000088880000f88800008888000018
:100cb400003e0000080800000808000008080000c2
:100cc40000f8000080800000f080000080800000b8
:100cd4003e200000203c00002020000020000000f6
:100ce4000070000088800000808000008870000090
:100cf400003c0000222200003c28000024220000c6
:100d040000800000808000008080000080f80000e7
:100d1400003e0000202000003c20000020200000b5
:100d24000000000038440000444400003800000083
:100d340000000000000000000000000000000000af
:100d4400000000001010000010100000fe10000051
:100d54001010000010000000fe0000000000000061
:100d640000840000c4a40000a4940000948c00003b
:100d7400842000002020000020200000203e0000ed
:100d84000000000088880000885000005020000007
:100d9400003e0000080800000808000008000000e9
:100da40010100000101000001010000010100000bf
:100db400f00000000000000000000000000000003f
:100dc400000000000000000000000000000000001f
:100dd400f0100000101000001010000010100000af
:100de40000000000000000000000000000000000ff
:100df4001f10000010100000101000001010000060
:100e0400101000001010000010100000101000005e
:100e14001f000000000000000000000000000000af
:100e2400101000001010000010100000101000003e
:100e3400ff1000001010000010100000101000003f
:100e440000000000ff00000000000000000000009f
:100e5400000000000000000000000000000000008e
:100e6400000000000000000000ff0000000000007f
:100e7400000000000000000000000000000000006e
:100e8400000000000000000000000000000000005e
:100e9400ff0000000000000000000000000000004f
:100ea400000000000000000000000000000000003e
:100eb4000000000000ff000000000000000000002f
:100ec400000000000000000000000000000000001e
:100ed400000000000000000000000000ff0000000f
:100ee400101000001010000010100000101000007e
:100ef4001f1000001010000010100000101000005f
:100f0400101000001010000010100000101000005d
:100f1400f01000001010000010100000101000006d
:100f2400101000001010000010100000101000003d
:100f3400ff000000000000000000000000000000ae
:100f4400000000000000000000000000000000009d
:100f5400ff1000001010000010100000101000001e
:100f640010100000101000001010000010100000fd
:100f740010100000101000001010000010100000ed
:100f840000000000020c000030c00000300c000023
:100f940002000000fe000000fe000000000000004f
:100fa4000000000000800000601800000618000027
:100fb40060800000fe000000fe0000000000000051
:100fc40000000000000000000000000000fe00001f
:100fd40024240000242400004484000000000000b5
:100fe40000000000000000000204000008fe0000f1
:100ff40010fe0000204000008000000000000000ff
:1010040000000000000000000c120000101000009e
:10101400107c0000101000003c5200002000000072
:1010240000000000000000000000000000000000bc
:10103400100000000000000000000000000000009c
:10104400000000000000000000000000000000009c
:10105400000000000000000000000000000000008c
:1010640000180000181800001810000010100000ec
:10107400101000001000000000100000100000001c
:101084006c24000024480000000000000000000060
:10109400000000000000000000000000000000004c
:1010a40000120000121200007f240000242400001b
:1010b40024240000fe4800004848000048000000c6
:1010c4001038000054920000929000005038000044
:1010d4001412000092920000543800001010000016
:1010e40001610000929200009494000068080000de
:1010f40010160000292900004949000086800000dc
:10110400003800004444000044280000103000006f
:101114004a8a0000848400004a3100000000000074
:1011240060200000204000000000000000000000db
:1011340000000000000000000000000000000000ab
:101144000002000004080000081000001010000055
:101154001010000010100000080800000402000035
:1011640000400000201000001008000008080000e3
:1011740008080000080800001010000020400000cb
:10118400000000000000000010920000543800002d
:101194005492000010000000000000000000000055
:1011a40000000000001000001010000010fe0000fd
:1011b40010100000101000000000000000000000eb
:1011c400000000000000000000000000000000001b
:1011d400000000000000000060200000204000002b
:1011e40000000000000000000000000000fe0000fd
:1011f40000000000000000000000000000000000eb
:1012040000000000000000000000000000000000da
:10121400000000000000000060600000000000000a
:10122400000200000204000004080000081000008e
:1012340010200000204000004080000080000000da
:101244000018000024240000424200004242000032
:101254004242000042240000241800000000000064
:1012640000100000103000005010000010100000aa
:10127400101000001010000010100000000000000a
:10128400001800002442000042020000040800008c
:101294001020000020400000407e000000000000fc
:1012a400003800004482000082020000043800007c
:1012b40004020000828200004438000000000000a4
:1012c4000008000018180000282800004848000002
:1012d40088fe000008080000080800000000000064
:1012e400007c00004040000040b80000c4820000c0
:1012f4000202000082820000443800000000000066
:10130400003800004440000080800000b8c40000a1
:101314008282000082820000443800000000000045
:1013240000fe000002040000040800000808000099
:101334000810000010100000101000001000000041
:10134400003800004482000082820000443800001b
:101354004482000082820000443800000000000043
:1013640000380000448200008282000082460000af
:101374003a0200000282000044380000000000002d
:101384000000000000000000181800000000000029
:101394000000000000180000180000000000000019
:1013a4000000000000000000181800000000000009
:1013b40000000000180800000810000000000000f1
:1013c40000000000000200000408000010200000db
:1013d40020100000080400000200000000000000cb
:1013e400000000000000000000fe000000000000fb
:1013f40000fe0000000000000000000000000000eb
:10140400000000000040000020100000080400005c
:10141400040800001020000040000000000000004c
:1014240000380000448200008282000004080000aa
:101434000810000010000000001000001000000060
:1014440000180000244200005ab50000a5a50000c1
:10145400a59a000040400000221c0000000000008b
:101464000010000010280000282800004444000058
:10147400447c0000828200008282000000000000a0
:1014840000f00000888400008484000088f80000d4
:10149400848200008282000084f8000000000000c2
:1014a400003800004442000080800000808000007a
:1014b40080800000804200004438000000000000ea
:1014c40000f0000088840000848200008282000012
:1014d400828200008484000088f000000000000084
:1014e40000fe0000808000008080000080fc00007e
:1014f400808000008080000080fe0000000000006a
:1015040000fe0000808000008080000080fc00005d
:1015140080800000808000008080000000000000c7
:10152400001800002442000040800000808e00006b
:101534008282000082420000661a0000000000005f
:1015440000820000828200008282000082fe00008d
:10155400828200008282000082820000000000007b
:1015640000380000101000001010000010100000df
:1015740010100000101000001038000000000000df
:101584000002000002020000020200000202000049
:1015940002020000024200002418000000000000c3
:1015a4000042000042440000444800005868000023
:1015b4006444000042420000414100000000000079
:1015c4000040000040400000404000004040000057
:1015d4004040000040400000407e00000000000049
:1015e4000082000082c60000c6c60000aaaa00004d
:1015f400aa92000092920000928200000000000073
:1016040000820000c2c20000a2a200009292000068
:10161400928a00008a860000868200000000000092
:1016240000380000444400008282000082820000ee
:101634008282000082440000443800000000000060
:1016440000f80000848200008282000084f8000018
:101654008080000080800000808000000000000086
:1016640000380000444400008282000082820000ae
:1016740082820000ba4400004438000008060000da
:1016840000f80000848200008282000084f80000d8
:10169400888400008484000082820000000000002e
:1016a40000380000448200008280000060180000be
:1016b40004020000828200004438000000000000a0
:1016c40000fe0000101000001010000010100000b8
:1016d40010100000101000001010000000000000a6
:1016e4000082000082820000828200008282000068
:1016f4008282000082820000443800000000000062
:101704000082000082820000824400004444000001
:10171400282800002810000010100000000000001d
:1017240000920000929200009292000092aa00009f
:10173400aa6c00004444000044440000000000007f
:101744000082000044440000282800001028000003
:1017540028280000444400008282000000000000a9
:101764000082000082440000444400002828000055
:101774001010000010100000101000000000000005
:1017840000fe00000404000008080000101000001f
:10179400202000004040000080fe00000000000007
:1017a4001e100000101000001010000010100000a7
:1017b400101000001010000010100000101e000097
:1017c4000080000080400000402000002010000045
:1017d40010080000080400000402000002000000d9
:1017e400f010000010100000101000001010000095
:1017f40010100000101000001010000010f0000085
:1018040010280000448200000000000000000000d6
:1018140000000000000000000000000000000000c4
:1018240000000000000000000000000000000000b4
:10183400000000000000000000000000fe000000a6
:101844003020000020100000000000000000000014
:101854000000000000000000000000000000000084
:101864000000000000000000003c000042020000f4
:101874003e42000082820000867a000000000000e0
:10188400008000008080000080b80000c482000056
:101894008282000082820000c4b8000000000000c0
:1018a4000000000000000000003800004482000036
:1018b40080800000808200004438000000000000a6
:1018c4000002000002020000023a0000468200000a
:1018d4008282000082820000463a0000000000007c
:1018e40000000000000000000038000044820000f6
:1018f40082fe0000808200004438000000000000e6
:10190400000c000010100000107c000010100000fb
:101914001010000010100000101000000000000063
:101924000000000000000000003b000044440000f0
:10193400443800004078000084820000827c00006b
:101944000040000040400000405c00006242000093
:1019540042420000424200004242000000000000f7
:101964000010000010000000003000001010000003
:101974001010000010100000101000000000000003
:10198400000800000800000000180000080800001b
:1019940008080000080800000808000010600000a3
:1019a4000040000040400000404200004448000065
:1019b400506800004444000042420000000000005f
:1019c4000030000010100000101000001010000083
:1019d40010100000101000001010000000000000a3
:1019e400000000000000000000ec000092920000e3
:1019f4009292000092920000929200000000000077
:101a04000000000000000000005c000062420000d2
:101a14004242000042420000424200000000000036
:101a240000000000000000000038000044820000b4
:101a3400828200008282000044380000000000001e
:101a4400000000000000000000b80000c482000094
:101a54008282000082c40000b88000008080000000
:101a64000000000000000000003a00004682000070
:101a740082820000824600003a0200000202000056
:101a84000000000000000000002c000030200000d6
:101a94002020000020200000202000000000000082
:101aa4000000000000000000003c00004240000074
:101ab4006018000006020000423c00000000000024
:101ac4000000000010100000107c00001010000046
:101ad4001010000010100000100c000000000000a6
:101ae400000000000000000000420000424200002c
:101af4004242000042420000463a0000000000005a
:101b0400000000000000000000820000828200004b
:101b140044440000282800001010000000000000c9
:101b240000000000000000000092000092920000fb
:101b340092aa0000aa4400004444000000000000ef
:101b440000000000000000000082000044280000a3
:101b54002810000028280000448200000000000033
:101b64000000000000000000008200008244000029
:101b740044280000281800001010000020c00000b5
:101b84000000000000000000007e000004080000c7
:101b9400081000001020000040fe000000000000bb
:101ba40004080000080800000808000008100000ed
:101bb40008080000080800000808000008040000e5
:101bc4001010000010100000101000001010000091
:101bd4001010000010100000101000001010000081
:101be40040200000202000002020000020100000e1
:101bf40020200000202000002020000020400000c1
:101c04000000000000600000920c000000000000d2
:101c140000000000000000000000000000000000c0
:101c240000000000000000000000000000000000b0
:101c340000000000000000000000000000000000a0
:101c44000000000000000000000000000000000090
:10207400000000000020000050500000200000007c
:10208400003e00002020000020200000202000004e
:1020940020200000000000000000000000000000fc
:1020a400000000000000000000000000101000000c
:1020b400101000001010000010100000f0000000cc
:1020c400000000000000000000000000000000000c
:1020d40000000000000000002010000010000000bc
:1020e40000000000000000000000000000180000d4
:1020f40018000000000000000000000000000000c4
:10210400000000007e020000020200007e040000c5
:102114000408000008100000204000000000000037
:1021240000000000000000000000000000fc0000af
:1021340024280000302000004040000080000000ff
:10214400000000000000000000000000080800007b
:10215400103000005090000010100000100000002b
:10216400000000000000000000000000202000002b
:10217400fc84000084880000081000002000000097
:10218400000000000000000000000000000000004b
:102194007c1000001010000010fe00000000000081
:1021a400000000000000000000000000080800001b
:1021b400fe080000182800004888000018000000ed
:1021c40000000000000000000000000040200000ab
:1021d4003ee4000028100000101000000000000081
:1021e40000000000000000000000000000000000eb
:1021f4007808000008080000fe000000000000004d
:10220400000000000000000000000000007c00004e
:10221400040400007c040000047c000000000000b2
:1022240000000000000000000000000024940000f2
:1022340054440000080800001020000000000000c2
:102244000000000000000000000000003c0000004e
:10225400000000000000000000000000000000007a
:1022640000000000fe02000012120000141800001a
:10227400101000002020000040800000000000003a
:1022840000020000020400000408000018280000f6
:10229400488800000808000008080000000000004a
:1022a4000010000010100000fe8200008282000076
:1022b4008204000004080000102000000000000058
:1022c4000000000000fe00001010000010100000cc
:1022d4001010000010100000ff00000000000000bb
:1022e4000008000008080000fe080000181800009c
:1022f400282800004888000008180000000000009a
:102304000010000010100000fe1200001212000065
:102314001222000022220000428c00000000000073
:1023240000200000203c0000e0100000101e00000f
:10233400f008000008080000080800000000000081
:1023440000200000203e0000222200004244000041
:102354008408000008100000204000000000000075
:1023640000400000404000007e4800004848000053
:102374008808000010100000204000000000000049
:102384000000000000fe0000020200000202000043
:102394000202000002fe0000020000000000000033
:1023a400002400002424000024fe00002424000053
:1023b4002424000004080000102000000000000095
:1023c400000000006010000000000000c2220000b5
:1023d400040400000810000020c0000000000000f9
:1023e4000000000000fe00000404000004080000d7
:1023f40008180000142400004282000000000000bd
:102404000040000040400000404e000072c4000044
:102414004840000040400000403e00000000000032
:10242400000000000282000042420000420400005a
:102434000408000008100000204000000000000014
:1024440000200000203e00002242000062540000f0
:102454008c0800000810000020400000000000006c
:10246400000200000c78000008080000ff080000cb
:1024740008080000081000002040000000000000d0
:10248400000000002022000092920000424400005c
:1024940004080000081000002040000000000000b4
:1024a400000000007e00000000000000fe080000a4
:1024b4000808000008100000204000000000000090
:1024c400002000002020000020300000282400000c
:1024d4002222000020200000202000000000000034
:1024e4000008000008080000fe08000008080000ba
:1024f4000808000010100000204000000000000048
:1025040000000000007c000000000000000000004b
:102514000000000000ff00000000000000000000b8
:10252400000000007e0200000224000014080000e5
:102534000c14000012220000408000000000000083
:102544001010000010fe0000040400000818000031
:10255400345200009210000010100000000000002f
:10256400000200000202000004040000040800004d
:10257400081000002040000080000000000000005f
:1025840000000000080800002424000024220000a9
:1025940022220000224200004282000000000000cb
:1025a4000040000040400000424c00007040000029
:1025b4004040000040400000403e00000000000099
:1025c40000000000fe0200000202000002040000fd
:1025d4000408000008100000204000000000000073
:1025e40000000000202000005050000088880000f7
:1025f40004020000010000000000000000000000d0
:102604000010000010100000fe100000185400001c
:1026140054520000529200001030000000000000ec
:102624000000000000fe000002020000040400009c
:10263400c83000001008000004040000000000007e
:102644000060000018040000000000006018000092
:1026540004000000e0180000040200000000000074
:1026640000100000101000001010000010280000de
:1026740024240000224e0000f202000000000000aa
:1026840000040000040400000464000018080000b2
:102694000c12000010200000408000000000000028
:1026a40000000000fe20000020200000fe200000aa
:1026b40020200000202000001e0000000000000078
:1026c400002000002020000017390000d212000072
:1026d4000c080000080400000404000000000000ce
:1026e40000000000000000007c040000040400005e
:1026f4000404000004040000ff00000000000000c7
:1027040000000000fe02000002020000027e000041
:10271400020200000202000002fe000000000000ad
:10272400000000007c00000000000000fe02000029
:102734000204000004080000106000000000000013
:1027440000040000444400004444000044440000e9
:1027540044040000080800001020000000000000ed
:10276400000800000828000028280000282900008c
:10277400292a00004a4c00004880000000000000a4
:1027840000000000404000004040000040400000c5
:102794004244000044480000506000000000000073
:1027a4000000000000fe000082820000828200001f
:1027b4008282000082fe000082000000000000000f
:1027c4000000000000fe00008282000082820000ff
:1027d40002040000040800001020000000000000b3
:1027e4000000000000c000002002000002020000ff
:1027f400040400000810000020c0000000000000d5
:1028040000900000484800000000000000000000a4
:1028140000000000000000000000000000000000b4
:1028240000600000909000006000000000000000c4
:102834000000000000000000000000000000000094
:102844000000000000000000000000000000000084
:102854000000000000000000000000000000000074
:102864000000000000000000000000000000000064
:102c440011860000303100003233000034350000ba
:102c54003637000038390000414200004344000088
:102c6400454600000000000000240000f4000000bd
:102c7400f0150000f5000000de070000f60000007b
:102c8400cef90000f6000000beeb0000f7000000e3
:102c9400acdd0000f80000009ccf0000f90000004b
:102ca4008cc10000fa0000007ab30000fb000000b1
:102cb4006aa50000fc0000005a970000fd00000017
:102cc40048890000fe000000387b0000ff0000007f
:102cd400286d000000010000185f000001010000e1
:102ce4000651000002010000f6420000030100004a
:102cf400e634000004010000d426000005010000b1
:102d0400c418000006010000b40a00000701000016
:102d1400a2fc00000701000092ee00000801000080
:102d240082e000000901000070d200000a010000e6
:102d340060c400000b01000050b600000c0100004c
:102d44003ea800000d0100002e9a00000e010000b4
:102d54001e8c00000f0100000c7e0000100100001a
:102d6400fc6f00001101000000d80000d600000034
:102d740060c20000d7000000c0ac0000d800000012
:102d840020970000d900000080810000da000000d4
:102d9400e06b0000db00000040560000dc00000097
:102da400a0400000dd000000002b0000de00000059
:102db40060150000df000000c0ff0000df0000001d
:102dc40020ea0000e000000080d40000e1000000e0
:102dd400e0be0000e200000040a90000e3000000a3
:102de400a0930000e4000000007e0000e500000065
:102df40060680000e6000000c0520000e700000028
:102e0400203d0000e800000080270000e9000000e9
:102e1400e0110000ea00000040fc0000ea000000ad
:102e2400a0e60000eb00000000d10000ec00000070
:102e340060bb0000ed000000c0a50000ee00000033
:102e440020900000ef000000807a0000f0000000f5
:102e5400e0640000f1000000404f0000f2000000b8
:102e6400a0390000f300000000000000803f0000d3
:102e740000000000803f000077be00007f3f00009c
:102e840077be00007f3f0000ee7c00007f3f000023
:102e9400dbf900007e3f000052b800007e3f0000d6
:102ea4003f3500007e3f0000a47000007d3f00001d
:102eb40091ed00007c3f0000f62800007c3f0000fc
:102ec4005a6400007b3f0000355e00007a3f00003a
:102ed40010580000793f0000ec510000783f0000da
:102ee400c74b0000773f000019040000763f000044
:102ef4006abc0000743f0000bc740000733f000013
:102f04000e2d0000723f0000d7a30000703f0000a8
:102f1400a01a00006f3f0000df4f00006d3f00006b
:102f2400a8c600006b3f0000e7fb0000693f0000fb
:102f34009eef0000673f0000dd240000663f0000b4
:102f440093180000643f00004a0c0000623f000038
:102f540000000000603f00002db200005d3f000053
:102f64005a6400005b3f000087160000593f0000d0
:102f7400b4c80000563f000058390000543f000018
:102f8400fca90000513f0000a01a00004f3f0000c0
:102f9400448b00004c3f00005eba0000493f000033
:102fa40079e90000463f000093180000443f000008
:102fb400ae470000413f00003f3500003e3f0000a7
:102fc400d12200003b3f000062100000383f0000a7
:102fd400f4fd0000343f000085eb0000313f0000a9
:102fe4008d9700002e3f0000964300002b3f000009
:102ff4009eef0000273f0000a69b0000243f000036
:1030040025060000213f00002db200001d3f0000f6
:10301400ac1c00001a3f00002b870000163f000084
:10302400aaf10000123f0000a01a00000f3f0000a8
:103034001f8500000b3f000014ae0000073f000096
:103044000ad70000033f000000000000003f00001a
:10305400ec510000f83e0000c5200000f03e0000e6
:10306400b0720000e83e000089410000e03e00002c
:1030740075930000d83e00004e620000d03e000070
:1030840027310000c83e000000000000c03e0000e0
:10309400c74b0000b73e0000a01a0000af3e00007e
:1030a40079e90000a63e00003f3500009e3e000086
:1030b40006810000953e0000df4f00008d3e0000b9
:1030c400a69b0000843e0000d9ce0000773e00009d
:1030d40066660000663e0000f4fd0000543e0000f9
:1030e40081950000433e00000e2d0000323e00009a
:1030f40077be00001f3e0000045600000e3e000094
:1031040023db0000f93d00003d0a0000d73d00002c
:103114000e2d0000b23d0000295c00008f3d000030
:10312400f4fd0000543d0000295c00000f3d000048
:10313400964300008b3c00000000000000000000eb
:10314400964300008bbc0000295c00000fbd00000a
:10315400f4fd000054bd0000295c00008fbd000098
:103164000e2d0000b2bd00003d0a0000d7bd0000d6
:1031740023db0000f9bd0000045600000ebe000071
:1031840077be00001fbe00000e2d000032be0000fe
:103194008195000043be0000f4fd000054be000011
:1031a4006666000066be0000d9ce000077be00004f
:1031b400a69b000084be0000df4f00008dbe00000f
:1031c4000681000095be00003f3500009ebe000051
:1031d40079e90000a6be0000a01a0000afbe0000fe
:1031e400c74b0000b7be000000000000c0be0000d6
:1031f40027310000c8be00004e620000d0be0000af
:1032040075930000d8be000089410000e0be0000b4
:10321400b0720000e8be0000c5200000f0be00004f
:10322400ec510000f8be00000000000000bf0000e8
:103234000ad7000003bf000014ae000007bf00005f
:103244001f8500000bbf0000a01a00000fbf000084
:10325400aaf1000012bf00002b87000016bf000077
:10326400ac1c00001abf00002db200001dbf0000fe
:103274002506000021bf0000a69b000024bf00001b
:103284009eef000027bf0000964300002bbf000004
:103294008d9700002ebf000085eb000031bf0000b9
:1032a400f4fd000034bf00006210000038bf0000cd
:1032b400d12200003bbf00003f3500003ebf0000ac
:1032c400ae47000041bf00009318000044bf000057
:1032d40079e9000046bf00005eba000049bf000063
:1032e400448b00004cbf0000a01a00004fbf000038
:1032f400fca9000051bf00005839000054bf000071
:10330400b4c8000056bf00008716000059bf000073
:103314005a6400005bbf00002db200005dbf0000d6
:103324000000000060bf00004a0c000062bf000003
:103334009318000064bf0000dd24000066bf000095
:103344009eef000067bf0000e7fb000069bf0000bc
:10335400a8c600006bbf0000df4f00006dbf000077
:10336400a01a00006fbf0000d7a3000070bf0000c8
:103374000e2d000072bf0000bc74000073bf00007b
:103384006abc000074bf00001904000076bf00008e
:10339400c74b000077bf0000ec51000078bf00006d
:1033a4001058000079bf0000355e00007abf0000ad
:1033b4005a6400007bbf0000f62800007cbf0000b8
:1033c40091ed00007cbf0000a47000007dbf0000f0
:1033d4003f3500007ebf000052b800007ebf0000f1
:1033e400dbf900007ebf0000ee7c00007fbf000020
:1033f40077be00007fbf000077be00007fbf0000e3
:103404000000000080bf00000000000080bf00003a
:103414000000000080bf000077be00007fbf0000f6
:1034240077be00007fbf0000ee7c00007fbf00007d
:10343400dbf900007ebf000052b800007ebf000030
:103444003f3500007ebf0000a47000007dbf000077
:1034540091ed00007cbf0000f62800007cbf000056
:103464005a6400007bbf0000355e00007abf000094
:103474001058000079bf0000ec51000078bf000034
:10348400c74b000077bf00001904000076bf00009e
:103494006abc000074bf0000bc74000073bf00006d
:1034a4000e2d000072bf0000d7a3000070bf000003
:1034b400a01a00006fbf0000df4f00006dbf0000c6
:1034c400a8c600006bbf0000e7fb000069bf000056
:1034d4009eef000067bf0000dd24000066bf00000f
:1034e4009318000064bf00004a0c000062bf000093
:1034f4000000000060bf00002db200005dbf0000ae
:103504005a6400005bbf00008716000059bf00002a
:10351400b4c8000056bf00005839000054bf000072
:10352400fca9000051bf0000a01a00004fbf00001a
:10353400448b00004cbf00005eba000049bf00008d
:1035440079e9000046bf00009318000044bf000062
:10355400ae47000041bf00003f3500003ebf000001
:10356400d12200003bbf00006210000038bf000001
:10357400f4fd000034bf000085eb000031bf000003
:103584008d9700002ebf0000964300002bbf000063
:103594009eef000027bf0000a69b000024bf000090
:1035a4002506000021bf00002db200001dbf000051
:1035b400ac1c00001abf00002b87000016bf0000df
:1035c400aaf1000012bf0000a01a00000fbf000003
:1035d4001f8500000bbf000014ae000007bf0000f1
:1035e4000ad7000003bf00000000000000bf000075
:1035f400ec510000f8be0000c5200000f0be000041
:10360400b0720000e8be000089410000e0be000086
:1036140075930000d8be00004e620000d0be0000ca
:1036240027310000c8be000000000000c0be00003a
:10363400c74b0000b7be0000a01a0000afbe0000d8
:1036440079e90000a6be00003f3500009ebe0000e0
:103654000681000095be0000df4f00008dbe000013
:10366400a69b000084be0000d9ce000077be0000f7
:103674006666000066be0000f4fd000054be000053
:103684008195000043be00000e2d000032be0000f4
:1036940077be00001fbe0000045600000ebe0000ee
:1036a40023db0000f9bd00003d0a0000d7bd000087
:1036b4000e2d0000b2bd0000295c00008fbd00008b
:1036c400f4fd000054bd0000295c00000fbd0000a3
:1036d400964300008bbc0000000000000080000046
:1036e400964300008b3c0000295c00000f3d000065
:1036f400f4fd0000543d0000295c00008f3d0000f3
:103704000e2d0000b23d00003d0a0000d73d000030
:1037140023db0000f93d0000045600000e3e0000cb
:1037240077be00001f3e00000e2d0000323e000058
:1037340081950000433e0000f4fd0000543e00006b
:1037440066660000663e0000d9ce0000773e0000a9
:10375400a69b0000843e0000df4f00008d3e000069
:1037640006810000953e00003f3500009e3e0000ab
:1037740079e90000a63e0000a01a0000af3e000058
:10378400c74b0000b73e000000000000c03e000030
:1037940027310000c83e00004e620000d03e000009
:1037a40075930000d83e000089410000e03e00000f
:1037b400b0720000e83e0000c5200000f03e0000aa
:1037c400ec510000f83e000000000000003f000043
:1037d4000ad70000033f000014ae0000073f0000ba
:1037e4001f8500000b3f0000a01a00000f3f0000df
:1037f400aaf10000123f00002b870000163f0000d2
:10380400ac1c00001a3f00002db200001d3f000058
:1038140025060000213f0000a69b0000243f000075
:103824009eef0000273f0000964300002b3f00005e
:103834008d9700002e3f000085eb0000313f000013
:10384400f4fd0000343f000062100000383f000027
:10385400d12200003b3f00003f3500003e3f000006
:10386400ae470000413f000093180000443f0000b1
:1038740079e90000463f00005eba0000493f0000bd
:10388400448b00004c3f0000a01a00004f3f000092
:10389400fca90000513f000058390000543f0000cb
:1038a400b4c80000563f000087160000593f0000ce
:1038b4005a6400005b3f00002db200005d3f000031
:1038c40000000000603f00004a0c0000623f00005e
:1038d40093180000643f0000dd240000663f0000f0
:1038e4009eef0000673f0000e7fb0000693f000017
:1038f400a8c600006b3f0000df4f00006d3f0000d2
:10390400a01a00006f3f0000d7a30000703f000022
:103914000e2d0000723f0000bc740000733f0000d5
:103924006abc0000743f000019040000763f0000e8
:10393400c74b0000773f0000ec510000783f0000c7
:1039440010580000793f0000355e00007a3f000007
:103954005a6400007b3f0000f62800007c3f000012
:1039640091ed00007c3f0000a47000007d3f00004a
:103974003f3500007e3f000052b800007e3f00004b
:10398400dbf900007e3f0000ee7c00007f3f00007a
:1039940077be00007f3f000077be00007f3f00003d
:1039a40000000000803f000000000000803f000095
:1039b4000000000000000000964300008b3c000063
:1039c400295c00000f3d0000f4fd0000543d0000a0
:1039d400295c00008f3d00000e2d0000b23d000068
:1039e4003d0a0000d73d000023db0000f93d000044
:1039f400045600000e3e000077be00001f3e00008b
:103a04000e2d0000323e000081950000433e000070
:103a1400f4fd0000543e000066660000663e0000af
:103a2400d9ce0000773e0000a69b0000843e000033
:103a3400df4f00008d3e000006810000953e00002f
:103a44003f3500009e3e000079e90000a63e0000dc
:103a5400a01a0000af3e0000c74b0000b73e0000b4
:103a640000000000c03e000027310000c83e0000f6
:103a74004e620000d03e000075930000d83e000066
:103a840089410000e03e0000b0720000e83e000002
:103a9400c5200000f03e0000ec510000f83e00009c
:103aa40000000000003f00000ad70000033f0000b0
:103ab40014ae0000073f00001f8500000b3f00000c
:103ac400a01a00000f3f0000aaf10000123f0000fe
:103ad4002b870000163f0000ac1c00001a3f0000ba
:103ae4002db200001d3f000025060000213f00000c
:103af400a69b0000243f00009eef0000273f00002b
:103b0400964300002b3f00008d9700002e3f0000dd
:103b140085eb0000313f0000f4fd0000343f00005d
:103b240062100000383f0000d12200003b3f00003b
:103b34003f3500003e3f0000ae470000413f00001b
:103b440093180000443f000079e90000463f00005c
:103b54005eba0000493f0000448b00004c3f000067
:103b6400a01a00004f3f0000fca90000513f0000d4
:103b740058390000543f0000b4c80000563f00000c
:103b840087160000593f00005a6400005b3f0000a4
:103b94002db200005d3f000000000000603f000007
:103ba4004a0c0000623f000093180000643f0000cc
:103bb400dd240000663f00009eef0000673f000028
:103bc400e7fb0000693f0000a8c600006b3f00004f
:103bd400df4f00006d3f0000a01a00006f3f00009f
:103be400d7a30000703f00000e2d0000723f0000bc
:103bf400bc740000733f00006abc0000743f000006
:103c040019040000763f0000c74b0000773f000016
:103c1400ec510000783f000010580000793f00008c
:103c2400355e00007a3f00005a6400007b3f0000cc
:103c3400f62800007c3f000091ed00007c3f00006e
:103c4400a47000007d3f00003f3500007e3f00006f
:103c540052b800007e3f0000dbf900007e3f000008
:103c6400ee7c00007f3f000077be00007f3f000035
:103c740077be00007f3f000000000000803f00008e
:103c840000000000803f000000000000803f0000b2
:103c940077be00007f3f000077be00007f3f00003a
:103ca400ee7c00007f3f0000dbf900007e3f000057
:103cb40052b800007e3f00003f3500007e3f000008
:103cc400a47000007d3f000091ed00007c3f0000e7
:103cd400f62800007c3f00005a6400007b3f00008f
:103ce400355e00007a3f000010580000793f000064
:103cf400ec510000783f0000c74b0000773f000004
:103d040019040000763f00006abc0000743f000004
:103d1400bc740000733f00000e2d0000723f0000d1
:103d2400d7a30000703f0000a01a00006f3f0000fe
:103d3400df4f00006d3f0000a8c600006b3f00008d
:103d4400e7fb0000693f00009eef0000673f0000b2
:103d5400dd240000663f000093180000643f00006b
:103d64004a0c0000623f000000000000603f0000b9
:103d74002db200005d3f00005a6400005b3f00006c
:103d840087160000593f0000b4c80000563f0000e9
:103d940058390000543f0000fca90000513f0000c6
:103da400a01a00004f3f0000448b00004c3f00006d
:103db4005eba0000493f000079e90000463f000078
:103dc40093180000443f0000ae470000413f00004c
:103dd4003f3500003e3f0000d12200003b3f000081
:103de40062100000383f0000f4fd0000343f000082
:103df40085eb0000313f00008d9700002e3f00004e
:103e0400964300002b3f00009eef0000273f000078
:103e1400a69b0000243f000025060000213f00006f
:103e24002db200001d3f0000ac1c00001a3f000032
:103e34002b870000163f0000aaf10000123f00008b
:103e4400a01a00000f3f00001f8500000b3f000078
:103e540014ae0000073f00000ad70000033f000033
:103e640000000000003f0000ec510000f83e00009c
:103e7400c5200000f03e0000b0720000e83e0000e3
:103e840089410000e03e000075930000d83e000028
:103e94004e620000d03e000027310000c83e000002
:103ea40000000000c03e0000c74b0000b73e000009
:103eb400a01a0000af3e000079e90000a63e000011
:103ec4003f3500009e3e000006810000953e000044
:103ed400df4f00008d3e0000a69b0000843e0000e2
:103ee400d9ce0000773e000066660000663e000002
:103ef400f4fd0000543e000081950000433e0000a4
:103f04000e2d0000323e000077be00001f3e000070
:103f1400045600000e3e000023db0000f93d0000c3
:103f24003d0a0000d73d00000e2d0000b23d000008
:103f3400295c00008f3d0000f4fd0000543d0000aa
:103f4400295c00000f3d0000964300008b3c0000fc
:103f54000000000000000000964300008bbc00003d
:103f6400295c00000fbd0000f4fd000054bd0000fa
:103f7400295c00008fbd00000e2d0000b2bd0000c2
:103f84003d0a0000d7bd000023db0000f9bd00009e
:103f9400045600000ebe000077be00001fbe0000e5
:103fa4000e2d000032be00008195000043be0000cb
:103fb400f4fd000054be00006666000066be00000a
:103fc400d9ce000077be0000a69b000084be00008e
:103fd400df4f00008dbe00000681000095be00008a
:103fe4003f3500009ebe000079e90000a6be000037
:103ff400a01a0000afbe0000c74b0000b7be00000f
:1040040000000000c0be000027310000c8be000050
:104014004e620000d0be000075930000d8be0000c0
:1040240089410000e0be0000b0720000e8be00005c
:10403400c5200000f0be0000ec510000f8be0000f6
:104044000000000000bf00000ad7000003bf00000a
:1040540014ae000007bf00001f8500000bbf000066
:10406400a01a00000fbf0000aaf1000012bf000058
:104074002b87000016bf0000ac1c00001abf000014
:104084002db200001dbf00002506000021bf000066
:10409400a69b000024bf00009eef000027bf000085
:1040a400964300002bbf00008d9700002ebf000038
:1040b40085eb000031bf0000f4fd000034bf0000b8
:1040c4006210000038bf0000d12200003bbf000096
:1040d4003f3500003ebf0000ae47000041bf000076
:1040e4009318000044bf000079e9000046bf0000b7
:1040f4005eba000049bf0000448b00004cbf0000c2
:10410400a01a00004fbf0000fca9000051bf00002e
:104114005839000054bf0000b4c8000056bf000066
:104124008716000059bf00005a6400005bbf0000fe
:104134002db200005dbf00000000000060bf000061
:104144004a0c000062bf00009318000064bf000026
:10415400dd24000066bf00009eef000067bf000082
:10416400e7fb000069bf0000a8c600006bbf0000a9
:10417400df4f00006dbf0000a01a00006fbf0000f9
:10418400d7a3000070bf00000e2d000072bf000016
:10419400bc74000073bf00006abc000074bf000060
:1041a4001904000076bf0000c74b000077bf000071
:1041b400ec51000078bf00001058000079bf0000e7
:1041c400355e00007abf00005a6400007bbf000027
:1041d400f62800007cbf000091ed00007cbf0000c9
:1041e400a47000007dbf00003f3500007ebf0000ca
:1041f40052b800007ebf0000dbf900007ebf000063
:10420400ee7c00007fbf000077be00007fbf00008f
:1042140077be00007fbf00000000000080bf0000e8
:104224000000000080bf00000000000080bf00000c
:1042340077be00007fbf000077be00007fbf000094
:10424400ee7c00007fbf0000dbf900007ebf0000b1
:1042540052b800007ebf00003f3500007ebf000062
:10426400a47000007dbf000091ed00007cbf000041
:10427400f62800007cbf00005a6400007bbf0000e9
:10428400355e00007abf00001058000079bf0000be
:10429400ec51000078bf0000c74b000077bf00005e
:1042a4001904000076bf00006abc000074bf00005f
:1042b400bc74000073bf00000e2d000072bf00002c
:1042c400d7a3000070bf0000a01a00006fbf000059
:1042d400df4f00006dbf0000a8c600006bbf0000e8
:1042e400e7fb000069bf00009eef000067bf00000d
:1042f400dd24000066bf00009318000064bf0000c6
:104304004a0c000062bf00000000000060bf000013
:104314002db200005dbf00005a6400005bbf0000c6
:104324008716000059bf0000b4c8000056bf000043
:104334005839000054bf0000fca9000051bf000020
:10434400a01a00004fbf0000448b00004cbf0000c7
:104354005eba000049bf000079e9000046bf0000d2
:104364009318000044bf0000ae47000041bf0000a6
:104374003f3500003ebf0000d12200003bbf0000db
:104384006210000038bf0000f4fd000034bf0000dc
:1043940085eb000031bf00008d9700002ebf0000a8
:1043a400964300002bbf00009eef000027bf0000d3
:1043b400a69b000024bf00002506000021bf0000ca
:1043c4002db200001dbf0000ac1c00001abf00008d
:1043d4002b87000016bf0000aaf1000012bf0000e6
:1043e400a01a00000fbf00001f8500000bbf0000d3
:1043f40014ae000007bf00000ad7000003bf00008e
:104404000000000000bf0000ec510000f8be0000f6
:10441400c5200000f0be0000b0720000e8be00003d
:1044240089410000e0be000075930000d8be000082
:104434004e620000d0be000027310000c8be00005c
:1044440000000000c0be0000c74b0000b7be000063
:10445400a01a0000afbe000079e90000a6be00006b
:104464003f3500009ebe00000681000095be00009e
:10447400df4f00008dbe0000a69b000084be00003c
:10448400d9ce000077be00006666000066be00005c
:10449400f4fd000054be00008195000043be0000fe
:1044a4000e2d000032be000077be00001fbe0000cb
:1044b400045600000ebe000023db0000f9bd00001e
:1044c4003d0a0000d7bd00000e2d0000b2bd000063
:1044d400295c00008fbd0000f4fd000054bd000005
:1044e400295c00000fbd0000964300008bbc000057
:1044f4000000000000800000536c00006f77000093
:104504000046000061730000740000005361000065
:10451400766900006e6700002e2e00002e00000059
:104524002020000020200000202000002020000087
:104534002000000045720000726f0000722e00001f
:104544002e2e000020000000535300004d200000d8
:104554004d7500006c740000692000004d6f000070
:104564006e690000746f0000720000007270000039
:104574006d0000006b6d00002f6800000057000004
:10458400415400000041000049520000006b00004b
:104594006d2f00004c0000004d410000460000005b
:1045a40041460000520000004b4e00004f00000046
:1045b400494700004e0000006b6700002f630000b5
:1045c4006d320000004d0000756c0000746900003d
:1045d400204d000065740000657200000057000063
:1045e40061740000657200000041000069720000ff
:1045f40000460000756500006c200000436f000059
:104604006e730000756d000070740000696f000027
:104614006e2000004d6f00006e690000746f000092
:104624007200000025000000466500002f680000ad
:10463400006d00006c2f0000730000005353000055
:104644004d200000536500007475000070000000e8
:104654005541000052540000310000005541000053
:1046640052540000320000004d4f00004445000049
:104674000054000049520000452000005769000022
:1046840064740000680000005449000052450000b2
:10469400204600006c6100007400000054490000d2
:1046a40052450000204900006e63000068000000cd
:1046b4005449000052450000204300006972000084
:1046c400636c00006500000046750000656c000026
:1046d4002050000072690000636500000053000070
:1046e400534d000020570000616900007400000071
:1046f400535300004d20000043790000636c000018
:1047040065000000535300004d2000004572000076
:10471400726f000072000000466900006e610000c4
:104724006c0000003173000074000000326e000061
:104734006400000033720000640000003474000060
:104744006800000035740000680000003674000042
:104754006800000037740000680000004f7000001b
:10476400656e0000535300004d200000004f000010
:10477400706500006e5000006f720000740000004d
:104784004e540000534300002053000065740000a1
:1047940075700000006c0000696e00006500000088
:1047a4006c6900006e6500005f730000796e0000a4
:1047b400630000006c6900006e6500005f73000018
:1047c4007061000063650000006c0000696e000009
:1047d400655f000076690000646500006f000000fa
:1047e400686f0000726900007a6f00006e000000bc
:1047f400736500007272000061740000696f00004c
:104804006e00000065710000756100006c690000b5
:104814007a6900006e670000006c000065660000a5
:10482400745f0000737000006163000065000000a5
:104834007769000064740000680000004d6f000098
:104844006e690000746f0000720000005375000070
:1048540070650000726900006d7000006f730000e5
:10486400650000004578000074650000726e000069
:10487400616c0000204d000065740000657200004a
:10488400205300006574000075700000005400009f
:1048940041520000474500005400000030780000f9
:1048a400306600000030000078310000660000002f
:1048b40030780000326600000030000078330000d9
:1048c400660000003078000034660000003000000c
:1048d400783500006600000030780000366600007d
:1048e40000300000783700006600000030780000d7
:1048f40038660000003000007839000066000000cf
:10490400307800006166000000300000786200002a
:10491400660000003078000063660000003000008c
:1049240078640000660000003078000065660000ce
:104934000030000078660000660000002d5300007f
:1049440045540000544900004e470000204d00002b
:104954004f440000452d0000005600006563000030
:10496400686900006c650000205300007065000059
:104974006564000020000000456e000067690000c7
:104984006e6500002053000070650000656400003f
:1049940020200000004200006f6f000073740000cc
:1049a400204d0000657400006572000020200000a6
:1049b4002000000054680000726f0000747400004e
:1049c4006c65000020200000202000002020000052
:1049d400004300006f6f00006c6100006e74000003
:1049e40020540000656d00007020000020000000cd
:1049f400496e0000746100006b65000041690000ad
:104a040072200000546500006d7000000043000037
:104a14006f6e000066690000677500007261000037
:104a2400746900006f6e000020530000657400007c
:104a340075700000004c00006f610000640000000d
:104a44005361000076650000004900006e690000b3
:104a540074690000616c0000697a00006500000060
:104a64004e6f0000772000004c6f0000616400006e
:104a7400696e0000672e00002e2e0000004c00001e
:104a84006f61000064200000537500006363000040
:104a94006573000073200000200000004c6f0000cc
:104aa4006164000020460000616900006c6500003c
:104ab4006420000020200000004e00006f770000fa
:104ac4002053000061760000696e0000672e00002c
:104ad4002e2e0000200000005361000076650000c7
:104ae40020530000756300006365000073730000c9
:104af40020200000005300006176000065200000c3
:104b040046610000696c000065640000202000001c
:104b140020000000496e000069740000205300006a
:104b240075630000636500007373000020200000bb
:104b3400004400004542000055470000204d00009d
:104b44006f6e0000697400006f7200000050000076
:104b54006f72000074410000005000006f7200008a
:104b64007442000000440000414300000041000082
:104b7400444300002d300000004100004443000085
:104b84002d31000000410000444300002d3200009c
:104b9400004c0000617300007400000043790000c1
:104ba400636c00006500000045720000726f000035
:104bb400720000005370000065650000640000008e
:104bc400456e0000676900006e6500000054000037
:104bd400687200006f740000746c000065000000cf
:104be400426f00006f73000074000000476500000e
:104bf4006172000000540000656d00007000000048
:104c040042610000747400006572000079000000c5
:104c1400414600002052000061740000650000005d
:104c2400494700002f4b00006e6f0000636b0000cb
:104c3400005300006869000066740000004300002f
:104c440000560000006700002f73000000410000c0
:104c54002f4600000064000065670000005000005b
:104c6400726f000064750000637400002049000046
:104c74006e6600006f6d000061740000696f0000d3
:104c84006e000000426f00006172000064200000aa
:104c94006e6100006d6500002020000020200000ef
:104ca4003a200000004200006f61000072640000be
:104cb40020620000756900006c6400002020000080
:104cc400203a0000204b00006f6b000069200000b8
:104cd40000460000697200006d77000061720000f8
:104ce4006520000056650000722e0000203a000086
:104cf4002000000046690000726d0000776100002a
:104d04007265000020620000756900006c64000098
:104d14003a2000004b6f00006b6900002000000087
:104d2400426f00006172000064200000532f0000f5
:104d34004e20000020200000202000003a20000027
:104d4400000000004f5300003130000041370000e4
:104d5400303800004d300000310000004f7000007a
:104d6400656e0000535300004d20000052650000a2
:104d7400762e000041000000596f0000737500009a
:104d84006b6500002046000055520000555300009a
:104d940041570000410000004f700000656e0000a4
:104da400535300004d20000046690000726d00005e
:104db400776100007265000000500000726f00000f
:104dc4006a6500006374000020570000696e0000eb
:104dd400535300004d200000262000004f700000b7
:104de400656e0000535300004d000000687400001d
:104df400747000003a2f00002f730000736d0000e0
:104e04002e6e000065780000746600006f6f00006d
:104e1400647300002e6a0000702f00000067000019
:104e24002d730000736d0000406e00006578000073
:104e3400746600006f6f0000647300002e6a000047
:104e440070000000284300002920000032300000d8
:104e540030370000202d00002032000030310000e7
:104e640030200000592e0000465500005255000025
:104e7400534100005741000000000000a4a60000b8
:104e8400b0a60000da070000050c000001000000d5
:104e940000000000bea60000cea60000da07000055
:104ea4000b1500000100000005000000bea6000074
:104eb400dfa60000f8a6000011a7000024a7000048
:104ec400574400005420000045720000726f000037
:104ed40072210000004900006e690000746900003e
:104ee400616c0000697a0000696e000067200000b0
:104ef4007379000073740000656d0000732e000068
:104f04002e2e000000430000616e00002774000094
:104f140020660000696e0000642000004163000008
:104f2400636500006c650000726f00006d65000031
:104f340074650000722e0000004e00006f770000c0
:104f4400206c00006f610000646900006e6700005f
:104f5400206300006f6e0000666900006775000042
:104f640072610000746900006f6e0000732e00000f
:104f74002e2e0000005300007563000063650000de
:104f84007373000000450000727200006f7200002d
:104f94000000000000c8000000c40000c2c00000ff
:104fa400c1cb000000c90000c7c50000c309000050
:104fb400e00000000092000094e400009071000002
:104fc40031000000000000007a73000061770000e7
:104fd40032f00000006300007864000065340000d3
:104fe40033f10000002000007666000074720000b7
:104ff40035f20000006e000062680000677900006e
:1050040036000000000000006d6a000075370000e3
:1050140038000000002c00006b6900006f300000b5
:1050240039000000002e00002f6c00003b700000cf
:105034002d000000005c00003a000000405e00000b
:1050440000000000d19400000d5b0000005d000032
:10505400000000000000000000000000e300000069
:1050640008e2000000a100005ca40000a70000000a
:1050740000000000a07f0000a2000000a6a800001d
:105084001bd00000ca000000a3000000aba9000070
:10509400d20000000000000000c6000080100000e4
:1050a400f0290000a8000000000000000e0000002d
:1050b400000f0000000000001500000000100000b8
:1050c40000000000240000000008000000000000b0
:1050d40012000000001c000000000000130000008b
:1050e4000014000000000000460000000011000051
:1050f40000000000228d000000800000004000003d
:10510400002000000010000000080000000400005f
:1051140000020000000100008000000040000000c8
:10512400200000001000000008000000040000003f
:105134000200000001000000fc0900004200000021
:10514400c0080000050000009e09000034000000b3
:08515400000000000000000053
:020000040000fa
:10515c000000fa000040eb00aaeab7000040eb00a8
:10516c00abeab700a0aa2a002a040700130020000b
:10517c00e20f20001100200010002000be040700e8
:10518c00f30b200012002000110020001000200062
:10519c00b9040700f30b2000e20f200011002000df
:1051ac00e00f2000b4040700f30b2000e20f2000f6
:1051bc00f10b200010002000af040700230020009a
:1051cc00d20f20002100200020002000aa0407009c
:1051dc00e30b2000220020002100200020002000f2
:1051ec00a5040700e30b2000d20f200021002000b3
:1051fc00d00f2000a0040700e30b2000d20f2000ea
:10520c00e10b2000200020009b040700330020004d
:10521c00c20f20003100200030002000960407004f
:10522c00d30b200032002000310020003000200081
:10523c0091040700d30b2000c20f20003100200086
:10524c00c00f20008c040700d30b2000c20f2000dd
:10525c00d10b200030002000870407004300200001
:10526c00b20f200041002000400020008204070003
:10527c00c30b200042002000410020004000200011
:10528c007d040700c30b2000b20f2000410020005a
:10529c00b00f200078040700c30b2000b20f2000d1
:1052ac00c10b20004000200073040700840007009d
:1052bc00d16c20009140780000ceb30000c060009b
:1052cc007040b300cde6b700a15280000010200062
:1052dc00808f50000200360000102000a052880081
:1052ec00a05280004400de00a0528800a052800032
:1052fc007053880070432000101288000000eb00ef
:10530c00201288000000280000128800a9c0bf00ed
:10531c007040b300a9e0b7009540a8008540a900f3
:10532c00a5c0bf007040b300a5e0b7009440a80032
:10533c008440a900a7c0bf007040b300a7e0b7002d
:10534c0094c0a80084c0a900605280006008880046
:10535c000000eb0030088800710a200091407800b2
:10536c0000c7b30000c07000a7e0b70094e0a8002d
:10537c0084e0a900000028008008880002000700d3
:10538c000080fa00000006000000fa00f16c20001a
:10539c009140780000ceb30000c06000a040b30084
:1053ac00cfe6b700116820009140780000ceb30022
:1053bc0000c06000a040b30081e6b7008220a800c6
:1053cc00e10a20009140780080cfb30000c060005b
:1053dc006040b300aee0b7009680a8008680a900bc
:1053ec00216820009140780000ceb30000c060001e
:1053fc00b040b30082e6b7008240a900210b200028
:10540c0091407800f0c8b30000c0600001c6b30042
:10541c0001407000b2e0b70097a0a80087a0a900d7
:10542c0070432000101388000000eb00201388004c
:10543c000000280000138800410b200091407800e8
:10544c00f0c8b30000c0600001c6b300014070009a
:10545c00b4e0b7009820a8008820a900010b200018
:10546c0091407800f0c8b30000c0600001c6b300e2
:10547c0001407000b0e0b7009720a9008720a90078
:10548c000080eb00700888000000eb0050088800da
:10549c000000280090088800810a200091407800c4
:1054ac0080cfb30000c060006040b300a8e0b7003c
:1054bc009500a8008500a9000080fa0000000600f5
:1054cc006000fa00403a8000c200dd0060632900f1
:1054dc00008040001001be00622f9800732f9800ce
:1054ec006e2a9000fe2a9000e00f5200e08f5a00c6
:1054fc00060035006e289000fe28900005ec070091
:10550c00402f9800512f9800160037006e289000fd
:10551c00610160006000b800030020000200700010
:10552c00838070006e2a9000fe2a90008501d100c5
:10553c000481d3000200700083807000f5eb07003b
:10554c00402f9800512f98004e299000de29900092
:10555c004e289000de2890001aec0700402f98008f
:10556c00512f9800b0b18400c1b18400202f980055
:10557c00312f98002e299000be299000e00f510089
:10558c00e08f5900060035002e289000be289000b0
:10559c00e0eb0700002f9800112f98001600370041
:1055ac002e289000610160006000b800030020000c
:1055bc0002007000838070002e2a9000be2a90009a
:1055cc008501d1000481d30002007000838070003b
:1055dc00d0eb0700002f9800112f98000e29900097
:1055ec009e2990000e2890009e289000f5eb070055
:1055fc00002f9800112f98000e2990009e299000e2
:10560c004e289000de2890004bec070002002c0086
:10561c00d34724008aec0700bdec070060528800d9
:10562c00403a8000c200dd00606329000080400029
:10563c001001be0062279800732798006e2290001c
:10564c00fe229000e00f5200e08f5a000600350059
:10565c006e209000fe209000aeeb070040279800d3
:10566c0051279800160037006e20900061016000f1
:10567c006000b800030020000200700083807000fe
:10568c006e229000fe2290008501d1000481d3008f
:10569c0002007000838070009eeb0700402798008a
:1056ac00512798004e219000de2190004e20900052
:1056bc00de209000c3eb070040279800512798008c
:1056cc00b0b18400c1b18400202798003127980024
:1056dc002e219000be219000e00f5100e08f590068
:1056ec00060035002e209000be20900089eb0700ac
:1056fc000027980011279800160037002e209000e4
:10570c00610160006000b80003002000020070001e
:10571c00838070002e229000be2290008501d10063
:10572c000481d300020070008380700079eb0700c5
:10573c0000279800112798000e2190009e219000c0
:10574c000e2090009e2090009eeb070000279800f2
:10575c00112798000e2190009e2190004e20900061
:10576c00de209000f4eb070002002000a34624008a
:10577c0033ec070066ec070070528800403a80005a
:10578c00c200dd0060632900008040001001be00f3
:10579c00621f9800731f98006e1a9000fe1a9000fa
:1057ac00e00f5200e08f5a00060035006e18900092
:1057bc00fe18900057eb0700401f9800511f9800ef
:1057cc00160037006e189000610160006000b80090
:1057dc000300200002007000838070006e1a90009d
:1057ec00fe1a90008501d1000481d30002007000e4
:1057fc008380700047eb0700401f9800511f9800f2
:10580c004e199000de1990004e189000de18900092
:10581c006ceb0700401f9800511f9800b0b184003a
:10582c00c1b18400201f9800311f98002e199000e0
:10583c00be199000e00f5100e08f590006003500b2
:10584c002e189000be18900032eb0700001f980035
:10585c00111f9800160037002e189000610160008f
:10586c006000b8000300200002007000838070000c
:10587c002e1a9000be1a90008501d1000481d3002d
:10588c00020070008380700022eb0700001f98005c
:10589c00111f98000e1990009e1990000e18900080
:1058ac009e18900047eb0700001f9800111f9800ee
:1058bc000e1990009e1990004e189000de18900062
:1058cc009deb070002002000c3282400dceb07003e
:1058dc000fec070080528800403a8000c200dd00c7
:1058ec0060632900008040001001be006217980020
:1058fc00731798006e129000fe129000e00f520089
:10590c00e08f5a00060035006e109000fe109000db
:10591c0000eb07004017980051179800160037004d
:10592c006e109000610160006000b8000300200060
:10593c0002007000838070006e129000fe129000c6
:10594c008501d1000481d3000200700083807000b7
:10595c00f0ea070040179800511798004e1190007c
:10596c00de1190004e109000de10900015eb070039
:10597c004017980051179800b0b18400c1b1840051
:10598c0020179800311798002e119000be1190002e
:10599c00e00f5100e08f5900060035002e109000ea
:1059ac00be109000dbea0700001798001117980052
:1059bc00160037002e109000610160006000b800e6
:1059cc000300200002007000838070002e129000f3
:1059dc00be1290008501d1000481d300020070003a
:1059ec0083807000cbea070000179800111798000d
:1059fc000e1190009e1190000e1090009e109000c1
:105a0c00f0ea070000179800111798000e1190008b
:105a1c009e1190004e109000de10900046eb070097
:105a2c00020020004333240085eb0700b8eb07008d
:105a3c0090528800403a8000c200dd00606329006b
:105a4c00008040001001be00620f9800730f980098
:105a5c006e0a9000fe0a9000e00f5200e08f5a0090
:105a6c00060035006e089000fe089000a9ea0700b9
:105a7c00400f9800510f9800160037006e089000e8
:105a8c00610160006000b80003002000020070009b
:105a9c00838070006e0a9000fe0a90008501d10090
:105aac000481d300020070008380700099ea070023
:105abc00400f9800510f98004e099000de0990009d
:105acc004e089000de089000beea0700400f9800d8
:105adc00510f9800b0b18400c1b18400200f980020
:105aec00310f98002e099000be099000e00f510074
:105afc00e08f5900060035002e089000be0890007b
:105b0c0084ea0700000f9800110f98001600370068
:105b1c002e089000610160006000b80003002000b6
:105b2c0002007000838070002e0a9000be0a900064
:105b3c008501d1000481d3000200700083807000c5
:105b4c0074ea0700000f9800110f98000e099000de
:105b5c009e0990000e0890009e08900099ea07009c
:105b6c00000f9800110f98000e0990009e099000ec
:105b7c004e089000de089000efea070002002000bb
:105b8c00033824002eeb070061eb0700a0528800bd
:105b9c00403a8000c200dd006063290000804000b4
:105bac001001be0062079800730798006e02900007
:105bbc00fe029000e00f5200e08f5a000600350004
:105bcc006e009000fe00900052ea0700400798001b
:105bdc0051079800160037006e00900061016000bc
:105bec006000b80003002000020070008380700089
:105bfc006e029000fe0290008501d1000481d3005a
:105c0c00020070008380700042ea07004007980091
:105c1c00510798004e019000de0190004e0090005c
:105c2c00de00900067ea07004007980051079800d3
:105c3c00b0b18400c1b184002007980031079800ee
:105c4c002e019000be019000e00f5100e08f590032
:105c5c00050035002e009000be0090002dea0700d4
:105c6c00008fbe00120037002e0090006101600012
:105c7c006000b800030020000200700083807000f8
:105c8c002e029000be0290008501d1000481d30049
:105c9c0002007000838070001eea0700008fbe00b7
:105cac001e01be001e00be0046ea0700008fbe00ab
:105cbc001e01be004e009000de0090009eea070020
:105ccc000200200003272400ddea070010eb070088
:105cdc00605388000080fa000000060000a0fe005f
:105cec000000fa0084e0a900cd82a900c052800017
:105cfc000000e800c0528800c15280003052800081
:105d0c00808f50000700310070528000100c88000a
:105d1c0010002000200c88000040eb0040eab70087
:105d2c0032003700c152800040528000808f5000fa
:105d3c000500310080528000100c880010002000fb
:105d4c00200c880029003700c1528000505280007e
:105d5c00808f50000900310080528000100c8800a8
:105d6c0010002000200c880090528000400c88000d
:105d7c0010002000500c88001c003700c05280001e
:105d8c00215280008100e900810f50000500310094
:105d9c0080528000100c880010002000200c88001d
:105dac001200370080528000100c88001000200078
:105dbc00200c880060528000600888000000eb0016
:105dcc00c0528800f051800010528800f16c200005
:105ddc009140780000ceb30000c06000cfe6b70061
:105dec00cde2a8000040eb0040eab7000080fa00ca
:105dfc000080fe000040060000a0fe000000fa003b
:105e0c008440a900cd82a8000080fa000080fe002a
:105e1c000040060000a0fe000200fa0084c0a900a9
:105e2c001152800011007800401288000180e800b7
:105e3c001052880020002000d052880040c2bf00c1
:105e4c00624060000004e000fcff3a004012800059
:105e5c00000f7800105280009000780041128800ea
:105e6c000080e800105288000080fa000080fe00dc
:105e7c000040060000a0fe000200fa008540a900c8
:105e8c00d05280000000e0000b003a00125280005b
:105e9c0092007800f0ff270000806000401288001c
:105eac000280e80010528800d05280000000e80008
:105ebc00d052880026003700d0528000a1528000ba
:105ecc008100e900810f500009003100115280005f
:105edc0011007800401288000180e8001052880000
:105eec00d05280000000e800d05288001800370023
:105efc00d1528000a0528000808f500011003100e0
:105f0c001252800092007800e0ff2f0000806000a9
:105f1c00401288000280e80010528800d0528000a5
:105f2c000000e800d05288000900370010528000b1
:105f3c000080e80010528800d05280000000e80079
:105f4c00d0528800d0528000ef0f5000f7ff36007f
:105f5c0040128000000f78000080fa000080fe00e4
:105f6c00004006003600f800809fbe00829fbe00f5
:105f7c00849fbe00869fbe003400f8000000200005
:105f8c00a00188000200fa008680a90094e0a90014
:105f9c00fdfc070010c0b30040eab70040138000be
:105fac00000f7800f0518000e05288000000eb00f8
:105fbc00905388000080fa003400f9004f03be00b3
:105fcc004f02be004f01be004f00be003600f9006c
:105fdc0000400600809fbe003400f8000000200046
:105fec00a00188000200fa0087a0a900905380004d
:105ffc000000e800905388009153800010538000fb
:10600c00808f500011003900915380002053800084
:10601c00808f50000a0031000000eb00500888000f
:10602c0060538000700c880090002000800c880069
:10603c009720a80040138000000f78000300370061
:10604c0097a0a90040138000000f78000080fa0090
:10605c003400f9004f00be0000400600809fbe00d7
:10606c003400f80000002000a00188000200fa00b3
:10607c008720a900e15280001100780040138800ad
:10608c000180e800e052880020002000a053880026
:10609c0060c2bf00624060000004e000fcff3a00f8
:1060ac0040138000000f7800e052800090007800d0
:1060bc00411388000080e800e05288009720a90076
:1060cc000080fa003400f9004f00be0000400600ca
:1060dc00809fbe00821f78003400f8000000200072
:1060ec00a00188000200fa008820a900a0538000bb
:1060fc000000e0000b003a00e252800092007800b1
:10610c00f0ff270000806000401388000280e80048
:10611c00e0528800a05380000000e800a0538800e3
:10612c0026003700a0538000715380008100e900e5
:10613c00810f500009003100e152800011007800fd
:10614c00401388000180e800e0528800a0538000d2
:10615c000000e800a053880018003700a15380000d
:10616c0070538000808f500011003100e25280008b
:10617c0092007800e0ff2f00008060004013880040
:10618c000280e800e0528800a05380000000e80084
:10619c00a053880009003700e05280000080e8001e
:1061ac00e0528800a05380000000e800a053880053
:1061bc00a0538000ef0f5000f7ff36004013800013
:1061cc00000f78000080fa003400f9004f017800cd
:1061dc004f00be0000400600801f78003400f8001d
:1061ec0000002000a00188000000fa008500a90032
:1061fc0094e0a8009500a90097a0a9000040eb002e
:10620c0040eab7000080fa003400f9004f00780033
:10621c00004006000600fa0020079800f0518000ac
:10622c00000f78000000eb00100798000700370003
:10623c001e007800ae009000010878001e8fe80068
:10624c001e0090000000e800100798009e009000cf
:10625c00f0bf2000808f5000f5ff36000080fa0060
:10626c00000006000000fa0040cabf000080fb00de
:10627c000080fa00000006000600fa00000f78000b
